:020000040000FA
:100000000C9463000C948B000C948B000C948B006C
:100010000C948B000C948B000C948B000C94370583
:100020000C948B000C948B000C948B000C948B0024
:100030000C948B000C948B000C948B000C948B0014
:100040000C94ED040C948B000C94DD050C94B70516
:100050000C948B000C948B000C948B000C948B00F4
:100060000C948B000C948B000200000000240027ED
:10007000002A0000000000250028002B00000000DE
:100080000800020100000304070000000000000057
:1000900000000000002300260029000404040404DA
:1000A0000404040202020202020303030303030125
:1000B00002040810204080010204081020010204FC
:1000C000081020000F0611241FBECFEFD8E0DEBFBE
:1000D000CDBF11E0A0E0B1E0ECE0F6E102C0059098
:1000E0000D92A234B107D9F722E0A2E4B1E001C039
:1000F0001D92A331B207E1F710E0C3E6D0E004C0DF
:100100002197FE010E94FE0AC236D107C9F70E945C
:100110005C060C94040B0C940000CF92DF92EF92DB
:10012000FF92CF93DF93B0910702A0E08111AB2F34
:100130008091080290E0880F991FAC014F565F4FE5
:10014000C0900D02D0900E02E0900F02F0901002CD
:1001500030E020E0FA01C591D491E881B90190E046
:1001600080E0EB23EA130AC02F5F3F4F6C157D053B
:100170008E059F0578F36FEF7FEFCB01DF91CF9175
:10018000FF90EF90DF90CF90089590E0FC01E3584E
:10019000FF4F2491FC01E155FF4F3491FC01E556DE
:1001A000FF4FE491EE23C9F0222339F0233001F10F
:1001B000A8F4213019F1223029F1F0E0EE0FFF1FF1
:1001C000ED58FF4FA591B4918FB7F894EC91611160
:1001D00026C030953E233C938FBF08952730A9F069
:1001E0002830C9F0243049F7809180008F7D03C00A
:1001F000809180008F7780938000DFCF84B58F77E8
:1002000084BDDBCF84B58F7DFBCF8091B0008F772D
:100210008093B000D2CF8091B0008F7DF9CF3E2B7C
:10022000DACFCF93DF9390E0FC01E155FF4F2491AB
:1002300085569F4FFC0184918823C9F090E0880F78
:10024000991FFC01E759FF4FA591B491FC01ED58AE
:10025000FF4FC591D49161110DC09FB7F8948C9157
:10026000209582238C938881282328839FBFDF9148
:10027000CF910895623051F49FB7F8943C91822F4A
:10028000809583238C93E8812E2BEFCF8FB7F89442
:10029000EC912E2B2C938FBFEACF3FB7F89480912F
:1002A0005B0190915C01A0915D01B0915E0126B56A
:1002B000A89B05C02F3F19F00196A11DB11D3FBF9E
:1002C000BA2FA92F982F8827BC01CD01620F711D6D
:1002D000811D911D42E0660F771F881F991F4A9567
:1002E000D1F708958F929F92AF92BF92CF92DF92F3
:1002F000EF92FF924B015C010E944D016B017C016A
:100300000E944D016C197D098E099F09683E73405A
:1003100081059105A8F321E0821A9108A108B1088E
:1003200088EEC80E83E0D81EE11CF11C81149104F4
:10033000A104B10429F7FF90EF90DF90CF90BF9018
:10034000AF909F908F900895CF92DF92EF92FF929F
:100350000F931F93CF93DF93CDB7DEB7C054D14037
:100360000FB6F894DEBF0FBECDBF2FB7F8948091C3
:100370005F0190916001A0916101B09162012FBF76
:100380004091090250910A0260910B0270910C0297
:100390008C019D01041B150B260B370BB901A8011D
:1003A000403D57406105710590F480911102C05C99
:1003B000DE4F0FB6F894DEBF0FBECDBFDF91CF91F9
:1003C0001F910F91FF90EF90DF90CF900895809351
:1003D000090290930A02A0930B02B0930C021092B0
:1003E0000402109203021092020210920102109273
:1003F000000262E0809105020E94110161E070E05C
:1004000080E090E00E94720161E0809105020E940C
:10041000110160E0809105020E94C50080910602F2
:100420008551823020F58BE291E10197F1F762E08E
:10043000809105020E9411018091120290E08230A9
:10044000910538F0880F991F880F991F059701971C
:10045000F1F7F89480E00E948D006F3F7F4F8F4F3F
:100460009F4F61F410921102789480E0A0CF64E174
:1004700070E080E090E00E947201D9CF81E00E949C
:100480008D006F3F7F4F8F4F9F4F61F38E010F5F46
:100490001F4F6E018FEBC81A8EEFD80A780180E0EB
:1004A0000E948D00F701608371838283938381E0D2
:1004B0000E948D00F7016483758386839783F8E03B
:1004C000EF0EF11CEC14FD0451F7789430E020E0BD
:1004D000F801C080D180E280F3804481558166813B
:1004E0007781FFEFCF16DF06EF06FF0631F04F3FB3
:1004F0008FEF58076807780719F410921102B5CFEB
:10050000F90183E0F595E7958A95E1F7E050FE4F14
:100510008081880FC416D506E606F70610F18083A1
:100520002F5F3F4F085F1F4F2832310589F64091FA
:1005300004022091000280910102280F3327331F0B
:1005400080910202280F311D80910302820F932FA8
:10055000911D99274817190681F681E080931102B1
:1005600026CF8160DCCFAF92BF92CF92DF92EF9225
:10057000FF920F931F93CF93DF936C017B018B014D
:10058000040F151FEB015E01AE18BF08C017D1079D
:1005900059F06991D601ED91FC910190F081E02D27
:1005A000C6010995892B79F7C501DF91CF911F917C
:1005B0000F91FF90EF90DF90CF90BF90AF90089594
:1005C000FC01538D448D252F30E0842F90E0821B59
:1005D000930B541710F0CF96089501970895FC01DE
:1005E000918D828D981761F0A28DAE0FBF2FB11D36
:1005F0005D968C91928D9F5F9F73928F90E008958E
:100600008FEF9FEF0895FC01918D828D981731F047
:10061000828DE80FF11D858D90E008958FEF9FEF9B
:100620000895FC01918D228D892F90E0805C9F4F71
:10063000821B91098F739927089583E691E00E94A8
:10064000110321E0892B09F420E0822F089580E036
:1006500090E0892B29F00E941D0381110C94000069
:100660000895FC01A48DA80FB92FB11DA35ABF4F47
:100670002C91848D90E001968F739927848FA689A1
:10068000B7892C93A089B1898C91837080648C93F5
:10069000938D848D981306C00288F389E02D8081A4
:1006A0008F7D80830895EF92FF920F931F93CF93D6
:1006B000DF93EC0181E0888F9B8D8C8D98131AC09D
:1006C000E889F989808185FF15C09FB7F894EE8984
:1006D000FF896083E889F9898081837080648083E1
:1006E0009FBF81E090E0DF91CF911F910F91FF902C
:1006F000EF900895F62E0B8D10E00F5F1F4F0F73D4
:100700001127E02E8C8D8E110CC00FB607FCFACF8E
:10071000E889F989808185FFF5CFCE010E943103F8
:10072000F1CFEB8DEC0FFD2FF11DE35AFF4FF0825F
:100730009FB7F8940B8FEA89FB8980818062CFCFC5
:10074000CF93DF93EC01888D8823B9F0AA89BB8908
:10075000E889F9898C9185FD03C0808186FD0DC0F3
:100760000FB607FCF7CF8C9185FFF2CF808185FF14
:10077000EDCFCE010E943103E9CFDF91CF910895F3
:10078000FC0101900020E9F73197AF01481B590B9C
:10079000BC0183E691E00C94B3028F929F92AF92DA
:1007A000BF920F931F93CF93DF93CDB7DEB7A1977F
:1007B0000FB6F894DEBF0FBECDBF19A2423008F4C9
:1007C0004AE08E010F5D1F4F842E912CB12CA12C7D
:1007D000A50194010E94DC0AE62FB901CA01EA30A2
:1007E000F4F4E05DD801EE938D01232B242B252B0F
:1007F00079F790E080E0109719F0CD010E94C003D6
:10080000A1960FB6F894DEBF0FBECDBFDF91CF919A
:100810001F910F91BF90AF909F908F900895E95CCA
:10082000E1CF4F925F926F927F928F929F92AF92A1
:10083000BF92CF92DF92EF92FF920F931F93CF93CD
:100840006B017C01742EAC019B010E94D70A8823A6
:1008500099F083E191E0CF911F910F91FF90EF907C
:10086000DF90CF90BF90AF909F908F907F906F90D0
:100870005F904F900C94C00346015701E894B7F87D
:100880002FEF3FEF4FE75FE7C501B4010E94D70AA2
:1008900081110DC02FEF3FEF4FE75FE7C501B401B6
:1008A0000E940D0918161CF487E191E0D4CF2FEFB8
:1008B0003FEF4FE75FE4C701B6010E94650A1816D3
:1008C0001CF48BE191E0C7CF2FEF3FEF4FE75FECD8
:1008D000C701B6010E940D0987FDF3CF20E030E08B
:1008E000A901C701B6010E940D0910E000E087FFD1
:1008F0000AC06DE283E691E00E9453038C01F7FA8F
:10090000F094F7F8F094C0E060E070E080E09FE3DE
:100910007C1641F020E030E040E251E40E941209F0
:10092000CF5FF6CFA70196010E94A1082B013C01E1
:100930000E9484094B015C014AE00E94CD037C01C6
:10094000E00EF11ECC23C1F1C501B4010E94B30930
:100950009B01AC01C301B2010E94A0084B015C01E4
:100960006EE283E691E00E945303E80EF91EC15047
:1009700018F120E030E040E251E4C501B4010E94EA
:100980006A0A2B013C010E9484094B01B12CA12C65
:100990004AE0C501B4010E94CD03E80EF91EC5016D
:1009A000B4010E94B3099B01AC01C301B2010E94D2
:1009B000A0084B015C01DBCFC701CF911F910F91C4
:1009C000FF90EF90DF90CF90BF90AF909F908F906F
:1009D0007F906F905F904F9008951F920F920FB687
:1009E0000F9211242F933F938F939F93AF93BF93B5
:1009F00080915F0190916001A0916101B0916201CD
:100A000030915A0123E0230F2D3758F50196A11D8F
:100A1000B11D20935A0180935F0190936001A093D0
:100A20006101B093620180915B0190915C01A091A2
:100A30005D01B0915E010196A11DB11D80935B0126
:100A400090935C01A0935D01B0935E01BF91AF9163
:100A50009F918F913F912F910F900FBE0F901F90FC
:100A6000189526E8230F0296A11DB11DD2CF1F9223
:100A70000F920FB60F9211242F933F934F935F93D2
:100A80006F937F938F939F93AF93BF93EF93FF9356
:100A900080914D0190914E01A0914F01B091500174
:100AA000892B8A2B8B2BC1F190914C0180910000F6
:100AB00089278093000080914D0190914E01A09173
:100AC0004F01B0915001181619061A061B069CF426
:100AD00080914D0190914E01A0914F01B091500134
:100AE0000197A109B10980934D0190934E01A09304
:100AF0004F01B0935001FF91EF91BF91AF919F9142
:100B00008F917F916F915F914F913F912F910F90B6
:100B10000FBE0F901F90189580910001E8E6F0E05D
:100B2000E4919FEF90930001E13051F030F0E2301A
:100B300069F060E00E94C500DECF10926E00F9CF30
:100B400090916F009D7F90936F00F3CF9091700014
:100B50009D7F9093700091E09093B0009091B100D0
:100B6000987F94609093B1001092B300E2CF1F92EF
:100B70000F920FB60F9211242F933F934F935F93D1
:100B80006F937F938F939F93AF93BF93EF93FF9355
:100B900083E691E00E943103FF91EF91BF91AF9105
:100BA0009F918F917F916F915F914F913F912F9185
:100BB0000F900FBE0F901F9018951F920F920FB6B7
:100BC0000F9211242F938F939F93EF93FF93E091B4
:100BD0007301F09174018081E0917901F0917A01C3
:100BE00082FD1BC0908180917C018F5F8F7320916B
:100BF0007D01821741F0E0917C01F0E0ED59FE4F5C
:100C0000958F80937C01FF91EF919F918F912F9110
:100C10000F900FBE0F901F9018958081F4CFE3E6E0
:100C2000F1E01382128288EE93E0A0E0B0E08483CA
:100C30009583A683B78385E091E09183808385ECDB
:100C400090E09587848784EC90E09787868780EC96
:100C500090E0918B808B81EC90E0938B828B82EC87
:100C600090E0958B848B86EC90E0978B868B118E31
:100C7000128E138E148EA0E0B2E087E015968C934E
:100C8000159786E116968C931697E6EBF0E0E491C3
:100C90001796EC931797E2EAF0E0E4911896EC933C
:100CA000189740E85EE360E070E01D964D935D9319
:100CB0006D937C9350970895789484B5826084BD39
:100CC00084B5816084BD85B5826085BD85B5816050
:100CD00085BD80916E00816080936E0010928100CE
:100CE0008091810082608093810080918100816089
:100CF000809381008091800081608093800080914A
:100D0000B10084608093B1008091B00081608093D5
:100D1000B00080917A00846080937A0080917A009C
:100D2000826080937A0080917A00816080937A005B
:100D300080917A00806880937A001092C100E091DF
:100D40007301F091740182E08083E0916F01F09172
:100D500070011082E0917101F09172018FEC80833B
:100D600010927B01E0917701F091780186E0808319
:100D7000E0917501F0917601808180618083E0913E
:100D80007501F0917601808188608083E091750122
:100D9000F0917601808180688083E0917501F09107
:100DA000760180818F7D808361E083E00E94110164
:100DB00061E084E00E94110161E085E00E94110180
:100DC00061E086E00E94110161E08CE00E94110167
:100DD00060E08EE00E94110160E085E00E94C500A5
:100DE00060E086E00E94C50060E087E00E94C500E8
:100DF00060E083E00E94C50062E0809105020E94ED
:100E000011012FB7F89480915F0190916001A0913A
:100E10006101B09162012FBF805D9740A109B109C6
:100E20008093090290930A02A0930B02B0930C02E4
:100E300087E38093120200E4C0E0D0E00E94A401A6
:100E4000882341F0809106028C3009F46AC048F48E
:100E50008B3001F1C12CD12C90ECE92E9FE7F92EBB
:100E600043C085518230B0F710910202612F70E0CB
:100E7000762F662766277F7780910302682B90E0A4
:100E800080E00E94B3092DEC3CEC4CEC5DE30E9449
:100E90006A0A63C06091020270E090E080E00E9404
:100EA000B3096B017C011091030217FF0AC0AC016A
:100EB0009B0160E070E080E89FEB0E94A0086B015E
:100EC0007C011F70612F70E090E080E00E94B50906
:100ED0002DEC3CEC4CEC5DE30E946A0AA701960104
:100EE0000E94A1086B017C01C0925501D09256016D
:100EF000E0925701F09258010E94A401882351F01A
:100F0000809106028B3030F08D3080F18551823037
:100F100008F4F0C0812C912C80ECA82E8FE7B82E1D
:100F200043C010910202612F70E090E080E00E94C7
:100F3000B3096B017C01609103026F7070E090E077
:100F400080E00E94B5092DEC3CEC4CEC5DE30E9486
:100F50006A0AA70196010E94A1086B017C0117FF94
:100F6000C3CFF7FAF094F7F8F094BECF6091010286
:100F700070E090E080E00E94B5092DEC3CEC4CEC78
:100F80005DE30E946A0A4B015C016091000270E01F
:100F900090E080E00E94B5099B01AC01C501B4015D
:100FA0000E94A1084B015C01809251019092520174
:100FB000A0925301B0925401A7019601C701B60156
:100FC0000E94D70A811108C0A5019401C501B4018E
:100FD0000E94D70A882341F08FE191E00E94C0036C
:100FE0008FE391E00E94C00300937C0080917A001F
:100FF000806480937A0080917A0086FDFCCF809196
:101000007800909179008093590161E0873908F464
:1010100060E083E00E94C500C0905501D090560169
:10102000E0905701F090580120E030E048ED51E4A5
:10103000C701B6010E94650A87FD0CC020E030E0C0
:1010400040EF51E4C701B6010E940D0960E0181697
:101050000CF06DC020E030E048ED51E4C701B6016E
:101060000E940D0918160CF457C060E084E00E943D
:10107000C50061E085E00E94C50061E086E00E9455
:10108000C50042E0C701B6010E9411048FE391E060
:101090000E94C003609151017091520180915301EF
:1010A0009091540142E00E9411048FE391E00E946C
:1010B000C0036091590170E090E080E04AE00E9436
:1010C000CD038FE391E00E94C0038FE391E00E9483
:1010D000C00364EF71E080E090E00E94720120970D
:1010E00009F4ACCE0E941D03882309F4A7CE0E9408
:1010F0000000A4CE6091000270910102762767275C
:10110000762790E080E00E94B3092DEC3CEC4CEC9B
:101110005DE30E946A0A46CF20E030E040EF51E4F0
:10112000C701B6010E94650A87FDABCF61E084E08C
:101130000E94C50060E085E00E94C50060E09ECF8F
:101140005058BB27AA270E94B8080C942B0A0E946B
:101150001D0A38F00E94240A20F039F49F3F19F448
:1011600026F40C941A0A0EF4E095E7FB0C94140A8A
:10117000E92F0E943C0A58F3BA17620773078407E5
:10118000950720F079F4A6F50C945E0A0EF4E0952C
:101190000B2EBA2FA02D0B01B90190010C01CA0131
:1011A000A0011124FF27591B99F0593F50F4503EDC
:1011B00068F11A16F040A22F232F342F4427585FCE
:1011C000F3CF469537952795A795F0405395C9F7E6
:1011D0007EF41F16BA0B620B730B840BBAF091509E
:1011E000A1F0FF0FBB1F661F771F881FC2F70EC03D
:1011F000BA0F621F731F841F48F487957795679510
:10120000B795F7959E3F08F0B0CF9395880F08F0FB
:101210009927EE0F9795879508950E94F00908F495
:1012200081E008950E9426090C942B0A0E94240A4A
:1012300058F00E941D0A40F029F45F3F29F00C94F9
:10124000140A51110C945F0A0C941A0A0E943C0A69
:1012500068F39923B1F3552391F3951B550BBB27E5
:10126000AA2762177307840738F09F5F5F4F220F2A
:10127000331F441FAA1FA9F335D00E2E3AF0E0E821
:1012800032D091505040E695001CCAF72BD0FE2F6B
:1012900029D0660F771F881FBB1F261737074807FF
:1012A000AB07B0E809F0BB0B802DBF01FF279358B7
:1012B0005F4F3AF09E3F510578F00C94140A0C945D
:1012C0005F0A5F3FE4F3983ED4F386957795679580
:1012D000B795F7959F5FC9F7880F911D96958795EC
:1012E00097F90895E1E0660F771F881FBB1F62170B
:1012F00073078407BA0720F0621B730B840BBA0BC9
:10130000EE1F88F7E09508950E94440A88F09F57E1
:1013100098F0B92F9927B751B0F0E1F0660F771F19
:10132000881F991F1AF0BA95C9F714C0B13091F00F
:101330000E945E0AB1E008950C945E0A672F782F30
:101340008827B85F39F0B93FCCF3869577956795D4
:10135000B395D9F73EF490958095709561957F4F40
:101360008F4F9F4F0895E89409C097FB3EF49095E6
:101370008095709561957F4F8F4F9F4F9923A9F06E
:10138000F92F96E9BB279395F695879577956795FD
:10139000B795F111F8CFFAF4BB0F11F460FF1BC041
:1013A0006F5F7F4F8F4F9F4F16C0882311F096E9D4
:1013B00011C0772321F09EE8872F762F05C0662382
:1013C00071F096E8862F70E060E02AF09A95660F3B
:1013D000771F881FDAF7880F9695879597F90895F4
:1013E000990F0008550FAA0BE0E8FEEF1616170636
:1013F000E807F907C0F012161306E407F50798F09E
:10140000621B730B840B950B39F40A2661F0232BB6
:10141000242B252B21F408950A2609F4A140A69532
:101420008FEF811D811D089597F99F6780E870E017
:1014300060E008959FEF80EC089500240A9416164A
:10144000170618060906089500240A9412161306B2
:10145000140605060895092E0394000C11F4882340
:1014600052F0BB0F40F4BF2B11F460FF04C06F5F5C
:101470007F4F8F4F9F4F089557FD9058440F551F32
:1014800059F05F3F71F04795880F97FB991F61F006
:101490009F3F79F087950895121613061406551F7D
:1014A000F2CF4695F1DF08C0161617061806991FE9
:1014B000F1CF86957105610508940895E894BB27DE
:1014C00066277727CB0197F908950E94F00908F461
:1014D0008FEF08950E947D0A0C942B0A0E941D0A2A
:1014E00038F00E94240A20F0952311F00C94140A7D
:1014F0000C941A0A11240C945F0A0E943C0A70F39F
:10150000959FC1F3950F50E0551F629FF001729FA8
:10151000BB27F00DB11D639FAA27F00DB11DAA1FB7
:10152000649F6627B00DA11D661F829F2227B00D04
:10153000A11D621F739FB00DA11D621F839FA00D8F
:10154000611D221F749F3327A00D611D231F849FDF
:10155000600D211D822F762F6A2F11249F57504036
:101560009AF0F1F088234AF0EE0FFF1FBB1F661FB1
:10157000771F881F91505040A9F79E3F510580F07A
:101580000C94140A0C945F0A5F3FE4F3983ED4F382
:10159000869577956795B795F795E7959F5FC1F71E
:1015A000FE2B880F911D9695879597F908950E94B7
:1015B000F009880B990B0895A1E21A2EAA1BBB1BF8
:1015C000FD010DC0AA1FBB1FEE1FFF1FA217B3070F
:1015D000E407F50720F0A21BB30BE40BF50B661F25
:1015E000771F881F991F1A9469F7609570958095E9
:1015F00090959B01AC01BD01CF010895EE0FFF1F37
:101600000590F491E02D0994F894FFCFFF000000BD
:10161000005303B302E002A0031103EF0203036EC1
:10162000616E00696E66006F7666004661696C6582
:101630006420746F20726561642066726F6D20444F
:0E16400048542073656E736F7221000D0A000E
:107E0000112484B714BE81FFF0D085E080938100F7
:107E100082E08093C00088E18093C10086E0809377
:107E2000C20080E18093C4008EE0C9D0259A86E02C
:107E300020E33CEF91E0309385002093840096BBD3
:107E4000B09BFECF1D9AA8958150A9F7CC24DD24C4
:107E500088248394B5E0AB2EA1E19A2EF3E0BF2EE7
:107E6000A2D0813461F49FD0082FAFD0023811F036
:107E7000013811F484E001C083E08DD089C08234E0
:107E800011F484E103C0853419F485E0A6D080C0E4
:107E9000853579F488D0E82EFF2485D0082F10E0AE
:107EA000102F00270E291F29000F111F8ED06801E7
:107EB0006FC0863521F484E090D080E0DECF843638
:107EC00009F040C070D06FD0082F6DD080E0C81688
:107ED00080E7D80618F4F601B7BEE895C0E0D1E017
:107EE00062D089930C17E1F7F0E0CF16F0E7DF06D8
:107EF00018F0F601B7BEE89568D007B600FCFDCFD4
:107F0000A601A0E0B1E02C9130E011968C91119780
:107F100090E0982F8827822B932B1296FA010C0160
:107F200087BEE89511244E5F5F4FF1E0A038BF0790
:107F300051F7F601A7BEE89507B600FCFDCF97BE46
:107F4000E89526C08437B1F42ED02DD0F82E2BD052
:107F50003CD0F601EF2C8F010F5F1F4F84911BD097
:107F6000EA94F801C1F70894C11CD11CFA94CF0C13
:107F7000D11C0EC0853739F428D08EE10CD085E9AC
:107F80000AD08FE07ACF813511F488E018D01DD067
:107F900080E101D065CF982F8091C00085FFFCCF94
:107FA0009093C60008958091C00087FFFCCF809118
:107FB000C00084FD01C0A8958091C6000895E0E648
:107FC000F0E098E1908380830895EDDF803219F02E
:107FD00088E0F5DFFFCF84E1DECF1F93182FE3DFCA
:107FE0001150E9F7F2DF1F91089580E0E8DFEE27F6
:047FF000FF270994CA
:027FFE00040479
:00000001FF
